:100000000C942A000C9447000C9447000C94470071
:100010000C9447000C9447000C9447000C94470044
:100020000C9447000C9447000C9447000C94470034
:100030000C9447000C9447000C9447000C94470024
:100040000C9447000C9447000C9447000C94470014
:100050000C94470011241FBECFE5D8E0DEBFCDBF12
:1000600010E0A0E6B0E0E6E4F5E302C005900D92F2
:10007000A038B107D9F710E0A0E8B0E001C01D92A8
:10008000A138B107E1F70E9439120C94A11A0C941F
:100090000000EF92FF920F931F937B018C0120E0F1
:1000A00030E040E05FE40E94F50388238CF0C80153
:1000B000B70120E030E040E05FE40E94C1010E940F
:1000C00055049B01AC01205030404040504806C0D0
:1000D000C801B7010E9455049B01AC01B901CA01D6
:1000E0001F910F91FF90EF900895A0E0B0E0EBE733
:1000F000F0E00C946A1ADC012B01FA019C91923019
:1001000008F439C1EB018881823008F433C194309E
:1001100069F4843009F02FC111969C91119789815F
:10012000981709F428C1A0E6B0E025C1843009F48D
:1001300021C18230A9F4923009F01DC19A01AD01AC
:1001400088E0EA010990AE01E90109929E0181501F
:10015000C1F7E201898111969C918923818308C1AD
:10016000923009F407C112962D903C901397EB0141
:100170008A819B811496AD90BD90CD90DC901797AD
:10018000EC80FD800E811F819101281B390BB90184
:1001900037FF04C066277727621B730B6032710537
:1001A0000CF061C0121613066CF537014801062EDB
:1001B00004C096948794779467940A94D2F721E0C8
:1001C00030E040E050E004C0220F331F441F551FB1
:1001D0006A95D2F721503040404050402E213F21B7
:1001E00040235123211531054105510521F021E01E
:1001F00030E040E050E079018A01E628F72808293C
:1002000019293CC0232BD1F1260E371E350146019A
:10021000062E04C096948794779467940A94D2F734
:1002200021E030E040E050E004C0220F331F441FC3
:10023000551F6A95D2F721503040404050402A2146
:100240003B214C215D21211531054105510521F04E
:1002500021E030E040E050E059016A01A628B728CB
:10026000C828D9280BC0821593052CF01C01AA249C
:10027000BB24650103C0EE24FF24870111969C91E5
:10028000D20111968C91981709F445C0992339F041
:10029000A80197012A193B094C095D0906C0A6016E
:1002A00095012E193F09400B510B57FD08C01182D3
:1002B0003382228224833583468357831DC081E0A5
:1002C00081833382228288279927DC01821B930B4A
:1002D000A40BB50B84839583A683B7830DC0220F2F
:1002E000331F441F551F24833583468357838281E0
:1002F000938101979383828324813581468157813D
:10030000DA01C9010197A109B1098F5F9F4FAF4F72
:10031000BF4328F30BC0918333822282EA0CFB1C7B
:100320000C1D1D1DE482F5820683178383E0808304
:10033000248135814681578157FF1AC0C901AA27F8
:1003400097FDA095BA2F81709070A070B0705695EF
:10035000479537952795822B932BA42BB52B848318
:100360009583A683B7838281938101969383828349
:10037000DF0101C0D201CD01CDB7DEB7E2E10C94BF
:10038000861AA0E2B0E0E7ECF1E00C94761A6983FB
:100390007A838B839C832D833E834F835887E9E048
:1003A000EE2EF12CEC0EFD1ECE010196B7010E943F
:1003B0007E058E010F5E1F4FCE010596B8010E948B
:1003C0007E058A8991E089278A8BC701B801AE0131
:1003D000475E5F4F0E9475000E94A904A096E6E068
:1003E0000C94921AA0E2B0E0E8EFF1E00C94761AD7
:1003F00069837A838B839C832D833E834F835887C5
:10040000F9E0EF2EF12CEC0EFD1ECE010196B701A6
:100410000E947E058E010F5E1F4FCE010596B8012A
:100420000E947E05C701B801AE01475E5F4F0E9482
:1004300075000E94A904A096E6E00C94921AA0E22E
:10044000B0E0E5E2F2E00C946A1A69837A838B8368
:100450009C832D833E834F835887CE010196BE0136
:10046000675F7F4F0E947E05CE010596BE016F5EDD
:100470007F4F0E947E059985923088F0898982306D
:10048000C8F0943019F4823051F404C0843029F457
:10049000923081F480E690E0C6C0923049F420E0CA
:1004A0009A858A89981321E02A87CE010996BBC0D4
:1004B000823049F420E09A858A89981321E02A8BBA
:1004C000CE014196B0C02D843E844F8458886D88FB
:1004D0007E888F88988CEE24FF248701AA24BB2471
:1004E000650140E050E060E070E0E0E0F0E0C10174
:1004F00081709070892BE9F0E60CF71C081D191D1E
:100500009A01AB012A0D3B1D4C1D5D1D80E090E062
:10051000A0E0B0E0E614F7040805190520F481E036
:1005200090E0A0E0B0E0BA01A901480F591F6A1F8E
:100530007B1FAA0CBB1CCC1CDD1C97FE08C081E0F5
:1005400090E0A0E0B0E0A82AB92ACA2ADB2A3196B6
:10055000E032F10549F0660C771C881C991C569412
:10056000479437942794C3CFFA85EA892B893C892D
:100570008B859C85280F391F2E5F3F4F17C0CA01FE
:1005800081709070892B61F016950795F794E79428
:1005900080E090E0A0E0B0E8E82AF92A0A2B1B2BC3
:1005A00076956795579547952F5F3F4F77FDE7CF36
:1005B0000CC0440F551F661F771F17FD4160EE0CDE
:1005C000FF1C001F111F21503040403090E05907A0
:1005D00090E0690790E4790760F32B8F3C8FDB0193
:1005E000CA018F779070A070B07080349105A1051A
:1005F000B10561F447FD0AC0E114F10401051105DC
:1006000029F0405C5F4F6F4F7F4F40781A8EFE1786
:1006100011F081E08A8F4D8F5E8F6F8F78A383E01A
:10062000898FCE0149960E94A904A096E2E10C941C
:10063000861AA8E1B0E0EFE1F3E00C94721A698346
:100640007A838B839C832D833E834F835887B9E0C5
:10065000EB2EF12CEC0EFD1ECE010196B7010E948F
:100660007E058E010F5E1F4FCE010596B8010E94D8
:100670007E052985223008F47EC03989323010F495
:10068000B8017CC08A859A8989278A87243011F02D
:10069000223031F4231709F06EC060E670E06EC0BE
:1006A000343039F41D861E861F86188A1C861B86E8
:1006B00004C0323021F484E08987B7015FC02B8504
:1006C0003C858B899C89281B390B3C872B87ED84C3
:1006D000FE840F851889AD88BE88CF88D88CEA142F
:1006E000FB040C051D0540F4EE0CFF1C001F111F40
:1006F000215030403C872B8720E030E040E050E044
:1007000080E090E0A0E0B0E460E070E0EA14FB0478
:100710000C051D0540F0282B392B4A2B5B2BEA18C2
:10072000FB080C091D09B695A79597958795EE0CC2
:10073000FF1C001F111F6F5F7F4F6F31710531F775
:10074000DA01C9018F779070A070B0708034910584
:10075000A105B10561F427FD0AC0E114F10401050A
:10076000110529F0205C3F4F4F4F5F4F20782D87B8
:100770003E874F87588BBE01675F7F4FCB010E943A
:10078000A9046896EAE00C948E1AA8E1B0E0EBECBC
:10079000F3E00C94761A69837A838B839C832D8390
:1007A0003E834F83588789E0E82EF12CEC0EFD1E26
:1007B000CE010196B7010E947E058E010F5E1F4F8C
:1007C000CE010596B8010E947E058985823040F0F1
:1007D0008989823028F0C701B8010E94F60501C05E
:1007E0008FEF6896E6E00C94921AA8E1B0E0EBEF88
:1007F000F3E00C94761A69837A838B839C832D8330
:100800003E834F83588789E0E82EF12CEC0EFD1EC5
:10081000CE010196B7010E947E058E010F5E1F4F2B
:10082000CE010596B8010E947E058985823040F090
:100830008989823028F0C701B8010E94F60501C0FD
:100840008FEF6896E6E00C94921AA8E1B0E0EBE234
:10085000F4E00C94761A69837A838B839C832D83CE
:100860003E834F83588789E0E82EF12CEC0EFD1E65
:10087000CE010196B7010E947E058E010F5E1F4FCB
:10088000CE010596B8010E947E058985823040F030
:100890008989823028F0C701B8010E94F60501C09D
:1008A00081E06896E6E00C94921AACE0B0E0EBE5EB
:1008B000F4E00C947A1A69837A838B839C83CE014B
:1008C0000196BE016B5F7F4F0E947E058D81823055
:1008D00061F1823050F1843021F48E81882351F10E
:1008E0002EC02F81388537FD20C06E812F31310514
:1008F0001CF06623F9F023C08EE190E0821B930B7D
:1009000029853A854B855C8504C056954795379572
:1009100027958A95D2F76623B1F05095409530958A
:1009200021953F4F4F4F5F4F0EC020E030E040E039
:1009300050E009C02FEF3FEF4FEF5FE704C020E02A
:1009400030E040E050E8B901CA012C96E2E00C9496
:10095000961ADF92EF92FF920F931F93FC01E480AF
:10096000F58006811781D1808081823048F480E053
:1009700090E0A0E1B0E0E82AF92A0A2B1B2BA5C0E1
:10098000843009F49FC0823021F4EE24FF248701D3
:1009900005C0E114F1040105110519F4E0E0F0E0EF
:1009A00096C0628173819FEF623879070CF05BC05B
:1009B00022E83FEF261B370B2A3131052CF020E0CF
:1009C00030E040E050E02AC0B801A701022E04C088
:1009D00076956795579547950A94D2F781E090E010
:1009E000A0E0B0E004C0880F991FAA1FBB1F2A9582
:1009F000D2F70197A109B1098E219F21A023B1232C
:100A00000097A105B10521F081E090E0A0E0B0E001
:100A10009A01AB01282B392B4A2B5B2BDA01C90138
:100A20008F779070A070B07080349105A105B105EA
:100A300039F427FF09C0205C3F4F4F4F5F4F04C080
:100A4000215C3F4F4F4F5F4FE0E0F0E02030A0E0EF
:100A50003A07A0E04A07A0E45A0710F0E1E0F0E00E
:100A600079018A0127C06038710564F5FB01E158FE
:100A7000FF4FD801C7018F779070A070B07080349D
:100A80009105A105B10539F4E7FE0DC080E490E0C1
:100A9000A0E0B0E004C08FE390E0A0E0B0E0E80E9A
:100AA000F91E0A1F1B1F17FF05C016950795F7941F
:100AB000E794319687E016950795F794E7948A9521
:100AC000D1F705C0EE24FF248701EFEFF0E06E2F91
:100AD000679566276795902F9F77D794DD24D794E5
:100AE0008E2F8695492F462B582F5D29B701CA01B5
:100AF0001F910F91FF90EF90DF900895FC01DB01B3
:100B0000408151812281622F6F7770E0221F22275E
:100B1000221F9381892F880F822B282F30E0991F65
:100B20009927991F11969C93119721153105A9F5C5
:100B3000411551056105710511F482E037C082E865
:100B40009FEF13969C938E9312979A01AB0167E0E7
:100B5000220F331F441F551F6A95D1F783E08C93F2
:100B60000DC0220F331F441F551F12968D919C916B
:100B70001397019713969C938E931297203080E0E1
:100B8000380780E0480780E4580758F314962D93FF
:100B90003D934D935C93179708952F3F310579F45A
:100BA000411551056105710519F484E08C93089590
:100BB00064FF03C081E08C9312C01C9210C02F57B9
:100BC000304013963C932E93129783E08C9387E0EA
:100BD000440F551F661F771F8A95D1F770641496CE
:100BE0004D935D936D937C93179708951F93DC014C
:100BF000FB019C91923008F447C08081823008F458
:100C000043C0943051F411961C91843099F5818140
:100C1000682F70E0611B71093FC0843021F0923071
:100C200031F48230B9F18181882389F12DC0119688
:100C30001C9111978230F1F081811817D9F4129626
:100C40002D913C911397828193818217930794F0A1
:100C500028173907BCF014968D919D910D90BC9189
:100C6000A02D2481358146815781281739074A07ED
:100C70005B0718F4112341F00AC082179307A407F9
:100C8000B50740F4112319F061E070E005C06FEF83
:100C90007FEF02C060E070E0CB011F910895DF9309
:100CA000CF93CDB7DEB7EAE3F0E08FEF8083E7E3E1
:100CB000F0E08FEF8083E4E3F0E08FE08083E1E316
:100CC000F0E08FEF8083EBE3F0E01082E8E3F0E008
:100CD0001082E5E3F0E08FEF8083E2E3F0E0108242
:100CE000CF91DF910895DF93CF9300D000D000D053
:100CF000CDB7DEB78A836B834C8381E089838B8198
:100D0000883008F091C18A81843008F08DC18C81CF
:100D1000833008F089C18A81282F30E03E832D83FB
:100D20008D819E818130910509F471C02D813E81B4
:100D3000223031052CF48D819E81009771F075C1B0
:100D40002D813E812230310509F4BBC08D819E8109
:100D50008330910509F40FC168C18C818823A1F407
:100D6000AAE3B0E0EAE3F0E08081482F8B81282FEE
:100D700030E081E090E0022E02C0880F991F0A94B3
:100D8000E2F7842B8C9351C18C818130A9F4AAE3C2
:100D9000B0E0EAE3F0E08081482F8B81282F30E03B
:100DA00081E090E0022E02C0880F991F0A94E2F7BA
:100DB000809584238C9339C18C81823009F035C1B0
:100DC000AAE3B0E0EAE3F0E08081482F8B81282F8E
:100DD00030E081E090E002C0880F991F2A95E2F789
:100DE000809584238C93ABE3B0E0EBE3F0E080816B
:100DF000482F8B81282F30E081E090E0022E02C046
:100E0000880F991F0A94E2F7842B8C930EC18C8172
:100E10008823A1F4A7E3B0E0E7E3F0E08081482F66
:100E20008B81282F30E081E090E0022E02C0880FF5
:100E3000991F0A94E2F7842B8C93F7C08C81813040
:100E4000A9F4A7E3B0E0E7E3F0E08081482F8B81CD
:100E5000282F30E081E090E0022E02C0880F991F19
:100E60000A94E2F7809584238C93DFC08C818230D2
:100E700009F0DBC0A7E3B0E0E7E3F0E08081482FB2
:100E80008B81282F30E081E090E002C0880F991F0D
:100E90002A95E2F7809584238C93A8E3B0E0E8E3F9
:100EA000F0E08081482F8B81282F30E081E090E0B6
:100EB000022E02C0880F991F0A94E2F7842B8C93AC
:100EC000B4C08C818823A1F4A4E3B0E0E4E3F0E0B3
:100ED0008081482F8B81282F30E081E090E0022E26
:100EE00002C0880F991F0A94E2F7842B8C939DC04F
:100EF0008C818130A9F4A4E3B0E0E4E3F0E08081E8
:100F0000482F8B81282F30E081E090E0022E02C034
:100F1000880F991F0A94E2F7809584238C9385C0EB
:100F20008C81823009F081C0A4E3B0E0E4E3F0E01A
:100F30008081482F8B81282F30E081E090E002C033
:100F4000880F991F2A95E2F7809584238C93A5E357
:100F5000B0E0E5E3F0E08081482F8B81282F30E07E
:100F600081E090E0022E02C0880F991F0A94E2F7F8
:100F7000842B8C935AC08C818823A1F4A1E3B0E028
:100F8000E1E3F0E08081482F8B81282F30E081E081
:100F900090E0022E02C0880F991F0A94E2F7842B7A
:100FA0008C9343C08C818130A9F4A1E3B0E0E1E3EC
:100FB000F0E08081482F8B81282F30E081E090E0A5
:100FC000022E02C0880F991F0A94E2F780958423AD
:100FD0008C932BC08C81823041F5A1E3B0E0E1E33A
:100FE000F0E08081482F8B81282F30E081E090E075
:100FF00002C0880F991F2A95E2F7809584238C936D
:10100000A2E3B0E0E2E3F0E08081482F8B81282F5B
:1010100030E081E090E0022E02C0880F991F0A9410
:10102000E2F7842B8C9301C01982898126960FB632
:10103000F894DEBF0FBECDBFCF91DF910895DF934F
:10104000CF9300D000D00F92CDB7DEB78A836B83E9
:1010500081E089838A81843008F090C08B8183305D
:1010600008F08CC08A81282F30E03D832C838C814E
:101070009D818130910589F12C813D81223031059E
:101080002CF48C819D81009769F076C02C813D8184
:1010900022303105E9F18C819D818330910509F47D
:1010A00051C06AC08B81882329F4EAE3F0E08FEF16
:1010B000808365C08B81813021F4EAE3F0E0108207
:1010C0005EC08B81823009F05AC0EAE3F0E0108202
:1010D000EBE3F0E08FEF808352C08B81882329F40B
:1010E000E7E3F0E08FEF80834AC08B81813021F409
:1010F000E7E3F0E0108243C08B81823009F03FC00B
:10110000E7E3F0E01082E8E3F0E08FEF808337C0A0
:101110008B81882329F4E4E3F0E08FEF80832FC0F4
:101120008B81813021F4E4E3F0E0108228C08B81D0
:10113000823029F5E4E3F0E01082E5E3F0E08FEFA0
:1011400080831DC08B81882329F4E1E3F0E08FEFD9
:10115000808315C08B81813021F4E1E3F0E01082BF
:101160000EC08B81823059F4E1E3F0E01082E2E3BB
:10117000F0E08FEF808303C0198201C0198289815A
:101180000F900F900F900F900F90CF91DF910895D7
:10119000DF93CF9300D000D000D0CDB7DEB78A83E5
:1011A0006B834C8381E089838A81843008F0EBC0B3
:1011B0008B81883008F0E7C08C81823008F0E3C072
:1011C0008A81282F30E03E832D838D819E8181305E
:1011D000910509F447C02D813E81223031052CF460
:1011E0008D819E81009771F0CCC02D813E8122308F
:1011F000310509F467C08D819E818330910509F422
:1012000091C0BFC08C818130A1F4ABE3B0E0EBE3CF
:10121000F0E08081482F8B81282F30E081E090E042
:10122000022E02C0880F991F0A94E2F7842B8C9338
:10123000ABC08C81882309F0A7C0ABE3B0E0EBE33F
:10124000F0E08081482F8B81282F30E081E090E012
:10125000022E02C0880F991F0A94E2F7809584231A
:101260008C9392C08C818130A1F4A8E3B0E0E8E3D4
:10127000F0E08081482F8B81282F30E081E090E0E2
:10128000022E02C0880F991F0A94E2F7842B8C93D8
:101290007BC08C81882309F077C0A8E3B0E0E8E345
:1012A000F0E08081482F8B81282F30E081E090E0B2
:1012B000022E02C0880F991F0A94E2F780958423BA
:1012C0008C9362C08C818130A1F4A5E3B0E0E5E3AA
:1012D000F0E08081482F8B81282F30E081E090E082
:1012E000022E02C0880F991F0A94E2F7842B8C9378
:1012F0004BC08C81882309F047C0A5E3B0E0E5E34B
:10130000F0E08081482F8B81282F30E081E090E051
:10131000022E02C0880F991F0A94E2F78095842359
:101320008C9332C08C818130A1F4A2E3B0E0E2E37F
:10133000F0E08081482F8B81282F30E081E090E021
:10134000022E02C0880F991F0A94E2F7842B8C9317
:101350001BC08C818823C1F4A2E3B0E0E2E3F0E09B
:101360008081482F8B81282F30E081E090E0022E91
:1013700002C0880F991F0A94E2F7809584238C930A
:1013800003C0198201C01982898126960FB6F8948C
:10139000DEBF0FBECDBFCF91DF910895DF93CF9316
:1013A00000D000D00F92CDB7DEB78A836B8381E087
:1013B00089838A81843098F58A81282F30E03D83A3
:1013C0002C838C819D8181309105D1F02C813D81D0
:1013D000223031052CF48C819D81009761F020C072
:1013E0002C813D812230310581F08C819D818330BB
:1013F000910581F015C0EBE3F0E08B81808310C094
:10140000E8E3F0E08B8180830BC0E5E3F0E08B81C3
:10141000808306C0E2E3F0E08B81808301C0198203
:1014200089810F900F900F900F900F90CF91DF91C7
:101430000895DF93CF93CDB7DEB727970FB6F89413
:10144000DEBF0FBECDBF8A836B835D834C8381E09B
:1014500089838A81843008F07CC08B81883008F0D1
:1014600078C08C819D81009709F473C08A81282FF0
:1014700030E03F832E834E815F814130510559F129
:101480008E819F818230910534F42E813F81211518
:10149000310569F05CC04E815F814230510579F1C0
:1014A0008E819F818330910509F43DC050C0E9E3EE
:1014B000F0E08081282F30E08B81882F90E0A90117
:1014C00002C0559547958A95E2F7CA018170EC8173
:1014D000FD8180833FC0E6E3F0E08081282F30E08B
:1014E0008B81882F90E0A90102C0559547958A9578
:1014F000E2F7CA018170EC81FD8180832BC0E3E3B8
:10150000F0E08081282F30E08B81882F90E0A901C6
:1015100002C0559547958A95E2F7CA018170EC8122
:10152000FD81808317C0E0E3F0E08081282F30E068
:101530008B81882F90E0A90102C0559547958A9527
:10154000E2F7CA018170EC81FD81808303C01982BA
:1015500001C01982898127960FB6F894DEBF0FBEAD
:10156000CDBFCF91DF910895DF93CF9300D000D00E
:1015700000D0CDB7DEB78A837C836B8381E089831B
:101580008A81843008F040C08B819C810097E1F112
:101590008A81282F30E03E832D838D819E8181308A
:1015A0009105E1F02D813E81223031052CF48D81B1
:1015B0009E81009761F027C02D813E812230310548
:1015C000A1F08D819E8183309105B1F01CC0E9E3CB
:1015D000F0E08081EB81FC81808316C0E6E3F0E0DF
:1015E0008081EB81FC8180830FC0E3E3F0E08081A8
:1015F000EB81FC81808308C0E0E3F0E08081EB8137
:10160000FC81808301C01982898126960FB6F894E7
:10161000DEBF0FBECDBFCF91DF9108950F931F9313
:10162000DF93CF93CDB7DEB7CC54D0400FB6F8944C
:10163000DEBF0FBECDBFFE01E75BFF4F80E090E055
:10164000A8EFB1E480839183A283B3838E010B5B07
:101650001F4FFE01E75BFF4F6081718182819381A3
:1016600020E030E04AEF54E40E941F02DC01CB018D
:10167000F80180839183A283B383FE01EB5BFF4F6C
:10168000608171818281938120E030E040E85FE3F6
:101690000E942504882344F4FE01ED5BFF4F81E0A6
:1016A00090E09183808364C0FE01EB5BFF4F60811B
:1016B00071818281938120E03FEF4FE757E40E94E0
:1016C000C50318160CF043C0FE01E75BFF4F6081B5
:1016D00071818281938120E030E040E251E40E94F8
:1016E0001F02DC01CB018E010D5B1F4FBC01CD0140
:1016F0000E944900DC01CB01F801918380831FC067
:10170000FE01EF5BFF4F88EC90E091838083FE0148
:10171000EF5BFF4F808191810197F1F7FE01EF5B55
:10172000FF4F91838083DE01AD5BBF4FFE01ED5B18
:10173000FF4F80819181019711969C938E93FE01BA
:10174000ED5BFF4F808191810097D1F624C08E011F
:101750000D5B1F4FFE01EB5BFF4F6081718182814A
:1017600093810E944900DC01CB01F80191838083C1
:10177000FE01ED5BFF4F80819181FE01FF96918319
:101780008083FE01FF96808191810197F1F7FE0130
:10179000FF969183808388E30E94D10D80E090E0E2
:1017A000A0E2B2E48BAF9CAFADAFBEAF6BAD7CAD92
:1017B0008DAD9EAD2BEA3AEA4AE250E40E941F0248
:1017C000DC01CB018FAB98AFA9AFBAAF6FA978ADF1
:1017D00089AD9AAD20E030E040E85FE30E94250447
:1017E00088231CF481E08EAB91C06FA978AD89ADE0
:1017F0009AAD20E030E04FE753E40E94C50318168D
:101800000CF07BC06BAD7CAD8DAD9EAD20E030E0CB
:101810004AE754E40E941903DC01CB018AAB9BAB7D
:10182000ACABBDAB6AA97BA98CA99DA920E030E037
:101830004AEF54E40E941F02DC01CB018EA79FA750
:10184000A8ABB9AB6EA57FA588A999A920E030E027
:1018500040E85FE30E94250488232CF481E090E0B7
:101860009DA78CA73FC06EA57FA588A999A920E058
:101870003FEF4FE757E40E94C50318164CF56AA9DD
:101880007BA98CA99DA920E030E040E251E40E94B0
:101890001F02DC01CB01BC01CD010E944900DC012B
:1018A000CB019DA78CA70FC088EC90E09BA78AA7CF
:1018B0008AA59BA50197F1F79BA78AA78CA59DA553
:1018C00001979DA78CA78CA59DA5009769F724C0BB
:1018D0006EA57FA588A999A90E944900DC01CB01CA
:1018E0009DA78CA78CA59DA599A788A788A599A534
:1018F0000197F1F799A788A70FC06FA978AD89ADB7
:101900009AAD0E944900DC01CB018EAB8EA98FA35A
:101910008FA18A95F1F78FA38FE00E94D10D80E00F
:1019200090E0A0E2B2E48BA39CA3ADA3BEA36BA105
:101930007CA18DA19EA12BEA3AEA4AE250E40E94E2
:101940001F02DC01CB018F8F98A3A9A3BAA36F8DCF
:1019500078A189A19AA120E030E040E85FE30E94ED
:10196000250488231CF481E08E8F91C06F8D78A1AF
:1019700089A19AA120E030E04FE753E40E94C5031B
:1019800018160CF07BC06BA17CA18DA19EA120E05C
:1019900030E04AE754E40E941903DC01CB018A8F4E
:1019A0009B8FAC8FBD8F6A8D7B8D8C8D9D8D20E044
:1019B00030E04AEF54E40E941F02DC01CB018E8B21
:1019C0009F8BA88FB98F6E897F89888D998D20E034
:1019D00030E040E85FE30E94250488232CF481E096
:1019E00090E09D8B8C8B3FC06E897F89888D998D0F
:1019F00020E03FEF4FE757E40E94C50318164CF56F
:101A00006A8D7B8D8C8D9D8D20E030E040E251E42D
:101A10000E941F02DC01CB01BC01CD010E944900E4
:101A2000DC01CB019D8B8C8B0FC088EC90E09B8BF5
:101A30008A8B8A899B890197F1F79B8B8A8B8C898A
:101A40009D8901979D8B8C8B8C899D89009769F767
:101A500024C06E897F89888D998D0E944900DC01A0
:101A6000CB019D8B8C8B8C899D89998B888B8889E8
:101A700099890197F1F7998B888B0FC06F8D78A1A9
:101A800089A19AA10E944900DC01CB018E8F8E8D25
:101A90008F878F858A95F1F78F8781E00E94D10D1E
:101AA00080E090E0A0E0B0E48B879C87AD87BE87A4
:101AB0006B857C858D859E8520E030E04AEF54E47F
:101AC0000E941F02DC01CB018F839887A987BA8708
:101AD0006F81788589859A8520E030E040E85FE372
:101AE0000E94250488232CF481E090E09E838D835E
:101AF0003FC06F81788589859A8520E03FEF4FE769
:101B000057E40E94C50318164CF56B857C858D85BE
:101B10009E8520E030E040E251E40E941F02DC019B
:101B2000CB01BC01CD010E944900DC01CB019E83A9
:101B30008D830FC088EC90E09C838B838B819C818C
:101B40000197F1F79C838B838D819E8101979E8302
:101B50008D838D819E81009769F714C06F81788590
:101B600089859A850E944900DC01CB019E838D8383
:101B70008D819E819A83898389819A810197F1F76A
:101B80009A83898386E00E94D10DC45BDF4F0FB634
:101B9000F894DEBF0FBECDBFCF91DF911F910F91A3
:101BA0000895DF93CF93CDB7DEB769970FB6F8945A
:101BB000DEBF0FBECDBF898F83E060E040E00E94B2
:101BC000C80883E061E040E00E94C80883E062E06A
:101BD00041E00E94C80880E0698D0E94CE0980E043
:101BE00090E0A0E8BFE38D8B9E8BAF8BB88F6D89A3
:101BF0007E898F89988D2BEA3AEA4AE250E40E9466
:101C00001F02DC01CB01898B9A8BAB8BBC8B698962
:101C10007A898B899C8920E030E040E85FE30E946C
:101C2000250488231CF481E0888B91C069897A8916
:101C30008B899C8920E030E04FE753E40E94C50384
:101C400018160CF07BC06D897E898F89988D20E0F5
:101C500030E04AE754E40E941903DC01CB018C8791
:101C60009D87AE87BF876C857D858E859F8520E0AB
:101C700030E04AEF54E40E941F02DC01CB01888768
:101C80009987AA87BB87688579858A859B8520E0A7
:101C900030E040E85FE30E94250488232CF481E0D3
:101CA00090E09F838E833FC0688579858A859B8578
:101CB00020E03FEF4FE757E40E94C50318164CF5AC
:101CC0006C857D858E859F8520E030E040E251E483
:101CD0000E941F02DC01CB01BC01CD010E94490022
:101CE000DC01CB019F838E830FC088EC90E09D8345
:101CF0008C838C819D810197F1F79D838C838E81EC
:101D00009F8101979F838E838E819F81009769F7C2
:101D100024C0688579858A859B850E944900DC01FD
:101D2000CB019F838E838E819F819B838A838A814F
:101D30009B810197F1F79B838A830FC069897A8918
:101D40008B899C890E944900DC01CB01888B8889A2
:101D5000898389818A95F1F7898383E062E040E095
:101D60000E94C80869960FB6F894DEBF0FBECDBFBB
:101D7000CF91DF910895DF93CF93CDB7DEB7699709
:101D80000FB6F894DEBF0FBECDBF898F83E060E051
:101D900041E00E94C80883E061E040E00E94C8087A
:101DA00083E062E041E00E94C80880E0698D0E9403
:101DB000CE0980E090E0A0E8BFE38D8B9E8BAF8BD7
:101DC000B88F6D897E898F89988D2BEA3AEA4AE22D
:101DD00050E40E941F02DC01CB01898B9A8BAB8BF4
:101DE000BC8B69897A898B899C8920E030E040E846
:101DF0005FE30E94250488231CF481E0888B91C056
:101E000069897A898B899C8920E030E04FE753E427
:101E10000E94C50318160CF07BC06D897E898F89DE
:101E2000988D20E030E04AE754E40E941903DC0179
:101E3000CB018C879D87AE87BF876C857D858E851E
:101E40009F8520E030E04AEF54E40E941F02DC014D
:101E5000CB0188879987AA87BB87688579858A851A
:101E60009B8520E030E040E85FE30E942504882362
:101E70002CF481E090E09F838E833FC06885798554
:101E80008A859B8520E03FEF4FE757E40E94C5031A
:101E900018164CF56C857D858E859F8520E030E099
:101EA00040E251E40E941F02DC01CB01BC01CD01E4
:101EB0000E944900DC01CB019F838E830FC088EC18
:101EC00090E09D838C838C819D810197F1F79D83A8
:101ED0008C838E819F8101979F838E838E819F81CA
:101EE000009769F724C0688579858A859B850E945B
:101EF0004900DC01CB019F838E838E819F819B8370
:101F00008A838A819B810197F1F79B838A830FC023
:101F100069897A898B899C890E944900DC01CB01FF
:101F2000888B8889898389818A95F1F7898383E001
:101F300062E040E00E94C80869960FB6F894DEBFE0
:101F40000FBECDBFCF91DF910895DF93CF9300D027
:101F500000D00F92CDB7DEB78A836B8381E089838F
:101F60008A81282F30E03D832C838C819D818130B4
:101F7000910531F02C813D812230310531F00AC0CC
:101F80008B8180580E94D10D06C08B8180540E94A5
:101F9000D10D01C0198289810F900F900F900F9081
:101FA0000F90CF91DF910895DF93CF9300D000D0B1
:101FB00000D0CDB7DEB79D838C8381E08B838C818D
:101FC0009D81009711F41E8233C081E08A831982BB
:101FD00028C08981803150F08A81813039F482E0D3
:101FE0008A8319828A8169810E94A50F8981803143
:101FF00050F08A81823039F481E08A8319828A81A3
:1020000069810E94A50FEC81FD8120818C819D81D9
:1020100001969D838C83822F0E94BB0E89818F5FE6
:102020008983EC81FD818081882399F68B818E8361
:102030008E8126960FB6F894DEBF0FBECDBFCF912E
:10204000DF910895DF93CF93CDB7DEB72E970FB60C
:10205000F894DEBF0FBECDBF81E00E94D10D80E0BD
:1020600090E0A0E0B0E48B879C87AD87BE876B854E
:102070007C858D859E8520E030E04AEF54E40E9407
:102080001F02DC01CB018F839887A987BA876F81F4
:10209000788589859A8520E030E040E85FE30E94FA
:1020A000250488232CF481E090E09E838D833FC03B
:1020B0006F81788589859A8520E03FEF4FE757E467
:1020C0000E94C50318164CF56B857C858D859E8511
:1020D00020E030E040E251E40E941F02DC01CB012D
:1020E000BC01CD010E944900DC01CB019E838D83A0
:1020F0000FC088EC90E09C838B838B819C8101973F
:10210000F1F79C838B838D819E8101979E838D83C4
:102110008D819E81009769F714C06F8178858985CC
:102120009A850E944900DC01CB019E838D838D81BD
:102130009E819A83898389819A810197F1F79A8395
:1021400089832E960FB6F894DEBF0FBECDBFCF9118
:10215000DF910895DF93CF93CDB7DEB7A0970FB689
:10216000F894DEBF0FBECDBF98A38F8F1E821D8255
:102170001C821B828F8D98A199235CF481E090E0F2
:102180009E838D838F8D98A1909581959F4F98A365
:102190008F8FEB81FC818F8D98A12AE030E0B9010F
:1021A0000E94431A282F205DCE010796E80FF91FE1
:1021B00020838B819C8101969C838B838F8D98A13A
:1021C0002AE030E0B9010E94431ACB0198A38F8F17
:1021D0008F8D98A118161906E4F28D819E810097C3
:1021E00071F02B813C81CE010796FC01E20FF31FB9
:1021F0008DE280838B819C8101969C838B838B8174
:102200009C819E01295F3F4FF901E80FF91F108261
:102210001A8219821EC049815A812B813C81898191
:102220009A81B901681B790BCB019C012150304088
:10223000CE010796FC01E20FF31F2081CE014396E9
:10224000FC01E40FF51F208389819A8101969A830E
:10225000898329813A818B819C8128173907DCF297
:102260002B813C81CE014396FC01E20FF31F1082CB
:10227000CE0143960E94D40FA0960FB6F894DEBF0D
:102280000FBECDBFCF91DF910895DF93CF93CDB730
:10229000DEB764970FB6F894DEBF0FBECDBF9C8B40
:1022A0008B8B198A8B899C89009709F4D8C081E0AF
:1022B000898B188AD0C08889882F90E0FC01E85962
:1022C000FF4F908182E0692F40E00E94C8081F867E
:1022D000AFC08F85882F90E0FC01E459FF4F9081BB
:1022E0009E012E5E3F4F82E0692FA9010E94190ACC
:1022F0008A89882309F099C080E090E0A0EAB1E4DF
:102300008B879C87AD87BE876B857C858D859E85F9
:1023100020E030E04AEF54E40E941F02DC01CB01D0
:102320008F839887A987BA876F81788589859A85F1
:1023300020E030E040E85FE30E94250488232CF48D
:1023400081E090E09E838D833FC06F817885898591
:102350009A8520E03FEF4FE757E40E94C503181627
:102360004CF56B857C858D859E8520E030E040E2D4
:1023700051E40E941F02DC01CB01BC01CD010E948F
:102380004900DC01CB019E838D830FC088EC90E077
:102390009C838B838B819C810197F1F79C838B833A
:1023A0008D819E8101979E838D838D819E81009773
:1023B00069F724C06F81788589859A850E944900D4
:1023C000DC01CB019E838D838D819E819A838983DD
:1023D00089819A810197F1F79A8389830FC08F854C
:1023E000882F90E0FC01E459FF4F90819E012E5E02
:1023F0003F4F82E0692FA9010E94190A8A89882328
:1024000071F38889482F50E08F85282F30E0CA016A
:10241000880F991F880F991F820F931FFC01E059A5
:10242000FF4F8081EB89FC8980838F858F5F8F8749
:102430008F85843008F44DCF8889882F90E0FC0187
:10244000E859FF4F908182E0692F41E00E94C8085F
:1024500088898F5F888B8889843008F42CCF89899C
:1024600064960FB6F894DEBF0FBECDBFCF91DF915B
:102470000895DF93CF9300D0CDB7DEB70E944F060B
:102480000E940E0B80E890E00E9445118091800030
:10249000282F30E03A83298389819A8184339105FA
:1024A00099F129813A812533310584F489819A8112
:1024B0008233910519F129813A81233331050CF5D5
:1024C00089819A8181339105B1F02DC029813A81AA
:1024D00026333105F9F089819A8186339105BCF064
:1024E00029813A8127333105C1F089819A81883366
:1024F0009105B1F018C00E949812C4CF0E94A41395
:10250000C1CF0E944E14BECF0E94FB14BBCF0E94CD
:10251000B715B8CF0E947816B5CF0E94AF17B2CFCB
:102520000E94E618AFCF81E060E00E94CE09AACFFA
:10253000DF93CF93CDB7DEB76C970FB6F894DEBFBD
:102540000FBECDBF81E06FEF0E94CE0980E090E02A
:10255000AAEFB3E4898F9A8FAB8FBC8F698D7A8D88
:102560008B8D9C8D20E030E04AEF54E40E941F02E6
:10257000DC01CB018D8B9E8BAF8BB88F6D897E89F3
:102580008F89988D20E030E040E85FE30E942504C9
:1025900088232CF481E090E09C8B8B8B3FC06D896D
:1025A0007E898F89988D20E03FEF4FE757E40E94A6
:1025B000C50318164CF5698D7A8D8B8D9C8D20E0A6
:1025C00030E040E251E40E941F02DC01CB01BC017B
:1025D000CD010E944900DC01CB019C8B8B8B0FC08D
:1025E00088EC90E09A8B898B89899A890197F1F719
:1025F0009A8B898B8B899C8901979C8B8B8B8B8980
:102600009C89009769F714C06D897E898F89988DA0
:102610000E944900DC01CB019C8B8B8B8B899C89B0
:10262000988B8F878F8598890197F1F7988B8F8783
:1026300081E060E00E94CE0980E090E0AAEFB3E480
:102640008B879C87AD87BE876B857C858D859E85B6
:1026500020E030E04AEF54E40E941F02DC01CB018D
:102660008F839887A987BA876F81788589859A85AE
:1026700020E030E040E85FE30E94250488232CF44A
:1026800081E090E09E838D833FC06F81788589854E
:102690009A8520E03FEF4FE757E40E94C5031816E4
:1026A0004CF56B857C858D859E8520E030E040E291
:1026B00051E40E941F02DC01CB01BC01CD010E944C
:1026C0004900DC01CB019E838D830FC088EC90E034
:1026D0009C838B838B819C810197F1F79C838B83F7
:1026E0008D819E8101979E838D838D819E81009730
:1026F00069F714C06F81788589859A850E944900A1
:10270000DC01CB019E838D838D819E819A83898399
:1027100089819A810197F1F79A83898380E890E013
:102720000E94451180918000813309F40BCF81E034
:1027300060E00E94CE096C960FB6F894DEBF0FBE23
:10274000CDBFCF91DF910895DF93CF93CDB7DEB7A3
:102750002F970FB6F894DEBF0FBECDBF1F8699C06E
:102760008F85282F30E081E090E002C0880F991F0C
:102770002A95E2F7982F81E0692F0E94CE0980E028
:1027800090E0AAE7B3E48B879C87AD87BE876B8513
:102790007C858D859E8520E030E04AEF54E40E94E0
:1027A0001F02DC01CB018F839887A987BA876F81CD
:1027B000788589859A8520E030E040E85FE30E94D3
:1027C000250488232CF481E090E09E838D833FC014
:1027D0006F81788589859A8520E03FEF4FE757E440
:1027E0000E94C50318164CF56B857C858D859E85EA
:1027F00020E030E040E251E40E941F02DC01CB0106
:10280000BC01CD010E944900DC01CB019E838D8378
:102810000FC088EC90E09C838B838B819C81019717
:10282000F1F79C838B838D819E8101979E838D839D
:102830008D819E81009769F714C06F8178858985A5
:102840009A850E944900DC01CB019E838D838D8196
:102850009E819A83898389819A810197F1F79A836E
:10286000898380E890E00E94451180918000823346
:1028700069F081E060E00E94CE092F960FB6F894CF
:10288000DEBF0FBECDBFCF91DF9108958F858F5FE3
:102890008F878F85883008F463CF60CFDF93CF9325
:1028A000CDB7DEB72F970FB6F894DEBF0FBECDBF02
:1028B00087E08F879BC08F85282F332727FD309592
:1028C00081E090E002C0880F991F2A95E2F7982FC7
:1028D00081E0692F0E94CE0980E090E0AAE7B3E48E
:1028E0008B879C87AD87BE876B857C858D859E8514
:1028F00020E030E04AEF54E40E941F02DC01CB01EB
:102900008F839887A987BA876F81788589859A850B
:1029100020E030E040E85FE30E94250488232CF4A7
:1029200081E090E09E838D833FC06F8178858985AB
:102930009A8520E03FEF4FE757E40E94C503181641
:102940004CF56B857C858D859E8520E030E040E2EE
:1029500051E40E941F02DC01CB01BC01CD010E94A9
:102960004900DC01CB019E838D830FC088EC90E091
:102970009C838B838B819C810197F1F79C838B8354
:102980008D819E8101979E838D838D819E8100978D
:1029900069F714C06F81788589859A850E944900FE
:1029A000DC01CB019E838D838D819E819A838983F7
:1029B00089819A810197F1F79A83898380E890E071
:1029C0000E94451180918000833369F081E060E0CE
:1029D0000E94CE092F960FB6F894DEBF0FBECDBF72
:1029E000CF91DF9108958F8581508F878F858823C0
:1029F0000CF061CF5DCFDF93CF93CDB7DEB72F97CC
:102A00000FB6F894DEBF0FBECDBF1F86ABC08F855B
:102A1000282F30E081E090E002C0880F991F2A95AE
:102A2000E2F7482F8F85282F30E087E090E0BC0147
:102A3000621B730B9B0181E090E002C0880F991F1D
:102A40002A95E2F7842B982F81E0692F0E94CE0906
:102A500080E090E0A6E9B3E48B879C87AD87BE87D2
:102A60006B857C858D859E8520E030E04AEF54E4BF
:102A70000E941F02DC01CB018F839887A987BA8748
:102A80006F81788589859A8520E030E040E85FE3B2
:102A90000E94250488232CF481E090E09E838D839E
:102AA0003FC06F81788589859A8520E03FEF4FE7A9
:102AB00057E40E94C50318164CF56B857C858D85FF
:102AC0009E8520E030E040E251E40E941F02DC01DC
:102AD000CB01BC01CD010E944900DC01CB019E83EA
:102AE0008D830FC088EC90E09C838B838B819C81CD
:102AF0000197F1F79C838B838D819E8101979E8343
:102B00008D838D819E81009769F714C06F817885D0
:102B100089859A850E944900DC01CB019E838D83C3
:102B20008D819E819A83898389819A810197F1F7AA
:102B30009A83898380E890E00E944511809180000B
:102B4000843369F081E060E00E94CE092F960FB6D1
:102B5000F894DEBF0FBECDBFCF91DF9108958F8572
:102B60008F5F8F878F85843008F451CF4ECFDF93EE
:102B7000CF93CDB7DEB72F970FB6F894DEBF0FBE59
:102B8000CDBF83E08F87AFC08F85282F332727FDE8
:102B9000309581E090E002C0880F991F2A95E2F7F6
:102BA000482F8F85282F332727FD309587E090E029
:102BB000BC01621B730B9B0181E090E002C0880F97
:102BC000991F2A95E2F7842B982F81E0692F0E94A4
:102BD000CE0980E090E0A6E9B3E48B879C87AD87BF
:102BE000BE876B857C858D859E8520E030E04AEF31
:102BF00054E40E941F02DC01CB018F839887A987D0
:102C0000BA876F81788589859A8520E030E040E831
:102C10005FE30E94250488232CF481E090E09E83EA
:102C20008D833FC06F81788589859A8520E03FEF4D
:102C30004FE757E40E94C50318164CF56B857C8559
:102C40008D859E8520E030E040E251E40E941F0225
:102C5000DC01CB01BC01CD010E944900DC01CB01AC
:102C60009E838D830FC088EC90E09C838B838B8147
:102C70009C810197F1F79C838B838D819E810197C5
:102C80009E838D838D819E81009769F714C06F812B
:102C9000788589859A850E944900DC01CB019E8355
:102CA0008D838D819E819A83898389819A81019701
:102CB000F1F79A83898380E890E00E944511809122
:102CC0008000853369F081E060E00E94CE092F9694
:102CD0000FB6F894DEBF0FBECDBFCF91DF91089540
:102CE0008F8581508F878F8588230CF04DCF49CFFA
:102CF000DF93CF93CDB7DEB76E970FB6F894DEBFF4
:102D00000FBECDBF1E8E84C08E8D282F30E081E097
:102D100090E002C0880F991F2A95E2F7982F81E072
:102D2000692F0E94CE0980E090E0A6E1B3E4898F8C
:102D30009A8FAB8FBC8F698D7A8D8B8D9C8D20E0A7
:102D400030E04AEF54E40E941F02DC01CB018D8B7E
:102D50009E8BAF8BB88F6D897E898F89988D20E08F
:102D600030E040E85FE30E94250488232CF481E0F2
:102D700090E09C8B8B8B3FC06D897E898F89988D6D
:102D800020E03FEF4FE757E40E94C50318164CF5CB
:102D9000698D7A8D8B8D9C8D20E030E040E251E48E
:102DA0000E941F02DC01CB01BC01CD010E94490041
:102DB000DC01CB019C8B8B8B0FC088EC90E09A8B55
:102DC000898B89899A890197F1F79A8B898B8B89ED
:102DD0009C8901979C8B8B8B8B899C89009769F7C9
:102DE00014C06D897E898F89988D0E944900DC010D
:102DF000CB019C8B8B8B8B899C89988B8F878F8544
:102E000098890197F1F7988B8F878E8D8F5F8E8FC2
:102E10008E8D883008F478CF86E08D8F86C08D8DBA
:102E2000282F332727FD309581E090E002C0880FDE
:102E3000991F2A95E2F7982F81E0692F0E94CE0909
:102E400080E090E0A6E1B3E48B879C87AD87BE87E6
:102E50006B857C858D859E8520E030E04AEF54E4CB
:102E60000E941F02DC01CB018F839887A987BA8754
:102E70006F81788589859A8520E030E040E85FE3BE
:102E80000E94250488232CF481E090E09E838D83AA
:102E90003FC06F81788589859A8520E03FEF4FE7B5
:102EA00057E40E94C50318164CF56B857C858D850B
:102EB0009E8520E030E040E251E40E941F02DC01E8
:102EC000CB01BC01CD010E944900DC01CB019E83F6
:102ED0008D830FC088EC90E09C838B838B819C81D9
:102EE0000197F1F79C838B838D819E8101979E834F
:102EF0008D838D819E81009769F714C06F817885DD
:102F000089859A850E944900DC01CB019E838D83CF
:102F10008D819E819A83898389819A810197F1F7B6
:102F20009A8389838D8D81508D8F8D8D88230CF0B0
:102F300076CF80E890E00E94451180918000863332
:102F400009F4E0CE81E060E00E94CE096E960FB6F3
:102F5000F894DEBF0FBECDBFCF91DF910895DF9310
:102F6000CF93CDB7DEB76E970FB6F894DEBF0FBE26
:102F7000CDBF1E8E84C08E8D282F30E081E090E082
:102F800002C0880F991F2A95E2F7982F81E0692FD8
:102F90000E94CE0980E090E0A8E4B3E4898F9A8F84
:102FA000AB8FBC8F698D7A8D8B8D9C8D20E030E04E
:102FB0004AEF54E40E941F02DC01CB018D8B9E8BF3
:102FC000AF8BB88F6D897E898F89988D20E030E036
:102FD00040E85FE30E94250488232CF481E090E020
:102FE0009C8B8B8B3FC06D897E898F89988D20E06B
:102FF0003FEF4FE757E40E94C50318164CF5698D63
:103000007A8D8B8D9C8D20E030E040E251E40E946F
:103010001F02DC01CB01BC01CD010E944900DC0193
:10302000CB019C8B8B8B0FC088EC90E09A8B898BAB
:1030300089899A890197F1F79A8B898B8B899C8969
:1030400001979C8B8B8B8B899C89009769F714C0A7
:103050006D897E898F89988D0E944900DC01CB01A2
:103060009C8B8B8B8B899C89988B8F878F8598897C
:103070000197F1F7988B8F878E8D8F5F8E8F8E8D56
:10308000883008F478CF86E08D8F86C08D8D282F0C
:10309000332727FD309581E090E002C0880F991F0B
:1030A0002A95E2F7982F81E0692F0E94CE0980E0EF
:1030B00090E0A8E4B3E48B879C87AD87BE876B85DF
:1030C0007C858D859E8520E030E04AEF54E40E94A7
:1030D0001F02DC01CB018F839887A987BA876F8194
:1030E000788589859A8520E030E040E85FE30E949A
:1030F000250488232CF481E090E09E838D833FC0DB
:103100006F81788589859A8520E03FEF4FE757E406
:103110000E94C50318164CF56B857C858D859E85B0
:1031200020E030E040E251E40E941F02DC01CB01CC
:10313000BC01CD010E944900DC01CB019E838D833F
:103140000FC088EC90E09C838B838B819C810197DE
:10315000F1F79C838B838D819E8101979E838D8364
:103160008D819E81009769F714C06F81788589856C
:103170009A850E944900DC01CB019E838D838D815D
:103180009E819A83898389819A810197F1F79A8335
:1031900089838D8D81508D8F8D8D88230CF076CF16
:1031A00080E890E00E94451180918000873309F407
:1031B000E0CE81E060E00E94CE096E960FB6F894F2
:1031C000DEBF0FBECDBFCF91DF910895DF93CF93C8
:1031D000CDB7DEB76E970FB6F894DEBF0FBECDBF8A
:1031E0001E8E96C08E8D282F30E081E090E002C0C8
:1031F000880F991F2A95E2F7482F8E8D282F30E0EF
:1032000087E090E0BC01621B730B9B0181E090E0C2
:1032100002C0880F991F2A95E2F7842B982F81E02E
:10322000692F0E94CE0980E090E0A6E9B3E4898F7F
:103230009A8FAB8FBC8F698D7A8D8B8D9C8D20E0A2
:1032400030E04AEF54E40E941F02DC01CB018D8B79
:103250009E8BAF8BB88F6D897E898F89988D20E08A
:1032600030E040E85FE30E94250488232CF481E0ED
:1032700090E09C8B8B8B3FC06D897E898F89988D68
:1032800020E03FEF4FE757E40E94C50318164CF5C6
:10329000698D7A8D8B8D9C8D20E030E040E251E489
:1032A0000E941F02DC01CB01BC01CD010E9449003C
:1032B000DC01CB019C8B8B8B0FC088EC90E09A8B50
:1032C000898B89899A890197F1F79A8B898B8B89E8
:1032D0009C8901979C8B8B8B8B899C89009769F7C4
:1032E00014C06D897E898F89988D0E944900DC0108
:1032F000CB019C8B8B8B8B899C89988B8F878F853F
:1033000098890197F1F7988B8F878E8D8F5F8E8FBD
:103310008E8D843008F466CF83E08D8F9AC08D8DBA
:10332000282F332727FD309581E090E002C0880FD9
:10333000991F2A95E2F7482F8D8D282F332727FDD7
:10334000309587E090E0BC01621B730B9B0181E02C
:1033500090E002C0880F991F2A95E2F7842B982FDE
:1033600081E0692F0E94CE0980E090E0A6E9B3E4F5
:103370008B879C87AD87BE876B857C858D859E8579
:1033800020E030E04AEF54E40E941F02DC01CB0150
:103390008F839887A987BA876F81788589859A8571
:1033A00020E030E040E85FE30E94250488232CF40D
:1033B00081E090E09E838D833FC06F817885898511
:1033C0009A8520E03FEF4FE757E40E94C5031816A7
:1033D0004CF56B857C858D859E8520E030E040E254
:1033E00051E40E941F02DC01CB01BC01CD010E940F
:1033F0004900DC01CB019E838D830FC088EC90E0F7
:103400009C838B838B819C810197F1F79C838B83B9
:103410008D819E8101979E838D838D819E810097F2
:1034200069F714C06F81788589859A850E94490063
:10343000DC01CB019E838D838D819E819A8389835C
:1034400089819A810197F1F79A8389838D8D8150C3
:103450008D8F8D8D88230CF062CF80E890E00E94E4
:10346000451180918000883309F4BACE81E060E094
:103470000E94CE096E960FB6F894DEBF0FBECDBF88
:10348000CF91DF91089597FB092E07260AD077FD8B
:1034900004D00CD006D000201AF4709561957F4FAF
:1034A0000895F6F7909581959F4F0895AA1BBB1B31
:1034B00051E107C0AA1FBB1FA617B70710F0A61B34
:1034C000B70B881F991F5A95A9F780959095BC0155
:1034D000CD0108952F923F924F925F926F927F920B
:1034E0008F929F92AF92BF92CF92DF92EF92FF9214
:1034F0000F931F93CF93DF93CDB7DEB7CA1BDB0BC0
:103500000FB6F894DEBF0FBECDBF09942A88398864
:1035100048885F846E847D848C849B84AA84B9846B
:10352000C884DF80EE80FD800C811B81AA81B98177
:10353000CE0FD11D0FB6F894DEBF0FBECDBFED018B
:063540000895F894FFCF8E
:103546000000000000000000000102030405060759
:103556003132332B3435362D3738392A30252F3D45
:00000001FF
